{
  "address": "0xC3C4262B47F140ddC60B098c21e96b480517E6C0",
  "abi": [
    {
      "inputs": [],
      "stateMutability": "nonpayable",
      "type": "constructor"
    },
    {
      "inputs": [],
      "name": "BurnFail",
      "type": "error"
    },
    {
      "inputs": [
        {
          "internalType": "uint256",
          "name": "amount",
          "type": "uint256"
        }
      ],
      "name": "InvalidBurnAmount",
      "type": "error"
    },
    {
      "inputs": [],
      "name": "NativeMintFail",
      "type": "error"
    },
    {
      "inputs": [
        {
          "internalType": "uint256",
          "name": "nonce",
          "type": "uint256"
        }
      ],
      "name": "NonceAlreadyProcessed",
      "type": "error"
    },
    {
      "inputs": [
        {
          "internalType": "address",
          "name": "caller",
          "type": "address"
        }
      ],
      "name": "NotAdmin",
      "type": "error"
    },
    {
      "anonymous": false,
      "inputs": [
        {
          "indexed": false,
          "internalType": "address",
          "name": "from",
          "type": "address"
        },
        {
          "indexed": false,
          "internalType": "address",
          "name": "to",
          "type": "address"
        },
        {
          "indexed": false,
          "internalType": "uint256",
          "name": "amount",
          "type": "uint256"
        },
        {
          "indexed": false,
          "internalType": "uint256",
          "name": "time",
          "type": "uint256"
        },
        {
          "indexed": false,
          "internalType": "uint256",
          "name": "nonce",
          "type": "uint256"
        },
        {
          "indexed": true,
          "internalType": "enum ZateBridge.Type",
          "name": "transferType",
          "type": "uint8"
        }
      ],
      "name": "Transfer",
      "type": "event"
    },
    {
      "inputs": [],
      "name": "admin",
      "outputs": [
        {
          "internalType": "address",
          "name": "",
          "type": "address"
        }
      ],
      "stateMutability": "view",
      "type": "function"
    },
    {
      "inputs": [
        {
          "internalType": "address",
          "name": "to",
          "type": "address"
        }
      ],
      "name": "burn",
      "outputs": [],
      "stateMutability": "payable",
      "type": "function"
    },
    {
      "inputs": [],
      "name": "burnAddress",
      "outputs": [
        {
          "internalType": "address",
          "name": "",
          "type": "address"
        }
      ],
      "stateMutability": "view",
      "type": "function"
    },
    {
      "inputs": [
        {
          "internalType": "address",
          "name": "to",
          "type": "address"
        },
        {
          "internalType": "uint256",
          "name": "amount",
          "type": "uint256"
        },
        {
          "internalType": "uint256",
          "name": "avaxNonce",
          "type": "uint256"
        }
      ],
      "name": "mint",
      "outputs": [],
      "stateMutability": "nonpayable",
      "type": "function"
    },
    {
      "inputs": [],
      "name": "nativeMinter",
      "outputs": [
        {
          "internalType": "address",
          "name": "",
          "type": "address"
        }
      ],
      "stateMutability": "view",
      "type": "function"
    },
    {
      "inputs": [],
      "name": "nonce",
      "outputs": [
        {
          "internalType": "uint256",
          "name": "",
          "type": "uint256"
        }
      ],
      "stateMutability": "view",
      "type": "function"
    },
    {
      "inputs": [
        {
          "internalType": "uint256",
          "name": "",
          "type": "uint256"
        }
      ],
      "name": "nonceToIsProcessed",
      "outputs": [
        {
          "internalType": "bool",
          "name": "",
          "type": "bool"
        }
      ],
      "stateMutability": "view",
      "type": "function"
    },
    {
      "inputs": [
        {
          "internalType": "address",
          "name": "newAdmin",
          "type": "address"
        }
      ],
      "name": "setAdmin",
      "outputs": [],
      "stateMutability": "nonpayable",
      "type": "function"
    }
  ],
  "transactionHash": "0xd8a3472b897d73aef2ecf0b3508d877da9e3a30fa2632580911bf974f3c80e77",
  "args": [],
  "numDeployments": 1,
  "solcInputHash": "6b615b013640aefe577dfbddecf5bee7",
  "bytecode": "0x608060405234801561001057600080fd5b50336000806101000a81548173ffffffffffffffffffffffffffffffffffffffff021916908373ffffffffffffffffffffffffffffffffffffffff160217905550610a4b806100606000396000f3fe60806040526004361061007b5760003560e01c806370d5ae051161004e57806370d5ae051461013a57806389afcb4414610165578063affed0e014610181578063f851a440146101ac5761007b565b8063156e29f614610080578063174eaef7146100a95780632e798186146100d4578063704b6c0214610111575b600080fd5b34801561008c57600080fd5b506100a760048036038101906100a29190610770565b6101d7565b005b3480156100b557600080fd5b506100be6102d0565b6040516100cb91906107d2565b60405180910390f35b3480156100e057600080fd5b506100fb60048036038101906100f691906107ed565b6102e8565b6040516101089190610835565b60405180910390f35b34801561011d57600080fd5b5061013860048036038101906101339190610850565b610308565b005b34801561014657600080fd5b5061014f610353565b60405161015c91906107d2565b60405180910390f35b61017f600480360381019061017a9190610850565b610358565b005b34801561018d57600080fd5b5061019661040c565b6040516101a3919061088c565b60405180910390f35b3480156101b857600080fd5b506101c1610412565b6040516101ce91906107d2565b60405180910390f35b6101df610436565b6002600082815260200190815260200160002060009054906101000a900460ff161561024257806040517fe5d143ad000000000000000000000000000000000000000000000000000000008152600401610239919061088c565b60405180910390fd5b60016002600083815260200190815260200160002060006101000a81548160ff02191690831515021790555061027883836104c8565b6000600181111561028c5761028b6108a7565b5b7f27757542a5e1b9e8cef80f584e094d4eb63b9802f355c61b3640b71b618d5c8e33858542866040516102c39594939291906108d6565b60405180910390a2505050565b73020000000000000000000000000000000000000181565b60026020528060005260406000206000915054906101000a900460ff1681565b610310610436565b806000806101000a81548173ffffffffffffffffffffffffffffffffffffffff021916908373ffffffffffffffffffffffffffffffffffffffff16021790555050565b600081565b6000340361039d57346040517f37fad59a000000000000000000000000000000000000000000000000000000008152600401610394919061088c565b60405180910390fd5b6103a5610631565b6001808111156103b8576103b76108a7565b5b7f27757542a5e1b9e8cef80f584e094d4eb63b9802f355c61b3640b71b618d5c8e338334426001546040516103f19594939291906108d6565b60405180910390a26001600081546001019190508190555050565b60015481565b60008054906101000a900473ffffffffffffffffffffffffffffffffffffffff1681565b60008054906101000a900473ffffffffffffffffffffffffffffffffffffffff1673ffffffffffffffffffffffffffffffffffffffff163373ffffffffffffffffffffffffffffffffffffffff16146104c657336040517f17a842420000000000000000000000000000000000000000000000000000000081526004016104bd91906107d2565b60405180910390fd5b565b600073020000000000000000000000000000000000000173ffffffffffffffffffffffffffffffffffffffff166040518060400160405280601f81526020017f6d696e744e6174697665436f696e28616464726573732c75696e743235362900815250805190602001208484604051602401610545929190610929565b604051602081830303815290604052907bffffffffffffffffffffffffffffffffffffffffffffffffffffffff19166020820180517bffffffffffffffffffffffffffffffffffffffffffffffffffffffff83818316178352505050506040516105af91906109c3565b6000604051808303816000865af19150503d80600081146105ec576040519150601f19603f3d011682016040523d82523d6000602084013e6105f1565b606091505b505090508061062c576040517ffb621ca700000000000000000000000000000000000000000000000000000000815260040160405180910390fd5b505050565b60008073ffffffffffffffffffffffffffffffffffffffff163460405161065790610a00565b60006040518083038185875af1925050503d8060008114610694576040519150601f19603f3d011682016040523d82523d6000602084013e610699565b606091505b50509050806106d4576040517f9e70cd3800000000000000000000000000000000000000000000000000000000815260040160405180910390fd5b50565b600080fd5b600073ffffffffffffffffffffffffffffffffffffffff82169050919050565b6000610707826106dc565b9050919050565b610717816106fc565b811461072257600080fd5b50565b6000813590506107348161070e565b92915050565b6000819050919050565b61074d8161073a565b811461075857600080fd5b50565b60008135905061076a81610744565b92915050565b600080600060608486031215610789576107886106d7565b5b600061079786828701610725565b93505060206107a88682870161075b565b92505060406107b98682870161075b565b9150509250925092565b6107cc816106fc565b82525050565b60006020820190506107e760008301846107c3565b92915050565b600060208284031215610803576108026106d7565b5b60006108118482850161075b565b91505092915050565b60008115159050919050565b61082f8161081a565b82525050565b600060208201905061084a6000830184610826565b92915050565b600060208284031215610866576108656106d7565b5b600061087484828501610725565b91505092915050565b6108868161073a565b82525050565b60006020820190506108a1600083018461087d565b92915050565b7f4e487b7100000000000000000000000000000000000000000000000000000000600052602160045260246000fd5b600060a0820190506108eb60008301886107c3565b6108f860208301876107c3565b610905604083018661087d565b610912606083018561087d565b61091f608083018461087d565b9695505050505050565b600060408201905061093e60008301856107c3565b61094b602083018461087d565b9392505050565b600081519050919050565b600081905092915050565b60005b8381101561098657808201518184015260208101905061096b565b60008484015250505050565b600061099d82610952565b6109a7818561095d565b93506109b7818560208601610968565b80840191505092915050565b60006109cf8284610992565b915081905092915050565b50565b60006109ea60008361095d565b91506109f5826109da565b600082019050919050565b6000610a0b826109dd565b915081905091905056fea2646970667358221220599b8fc1dde61a76d064647806fbf22362f8eb9e5208b99ced27548ce417763164736f6c63430008110033",
  "devdoc": {
    "kind": "dev",
    "methods": {},
    "version": 1
  },
  "userdoc": {
    "kind": "user",
    "methods": {},
    "version": 1
  },
  "storageLayout": {
    "storage": [
      {
        "astId": 317,
        "contract": "contracts/Bridge/ZateBridge.sol:ZateBridge",
        "label": "admin",
        "offset": 0,
        "slot": "0",
        "type": "t_address"
      },
      {
        "astId": 319,
        "contract": "contracts/Bridge/ZateBridge.sol:ZateBridge",
        "label": "nonce",
        "offset": 0,
        "slot": "1",
        "type": "t_uint256"
      },
      {
        "astId": 323,
        "contract": "contracts/Bridge/ZateBridge.sol:ZateBridge",
        "label": "nonceToIsProcessed",
        "offset": 0,
        "slot": "2",
        "type": "t_mapping(t_uint256,t_bool)"
      }
    ],
    "types": {
      "t_address": {
        "encoding": "inplace",
        "label": "address",
        "numberOfBytes": "20"
      },
      "t_bool": {
        "encoding": "inplace",
        "label": "bool",
        "numberOfBytes": "1"
      },
      "t_mapping(t_uint256,t_bool)": {
        "encoding": "mapping",
        "key": "t_uint256",
        "label": "mapping(uint256 => bool)",
        "numberOfBytes": "32",
        "value": "t_bool"
      },
      "t_uint256": {
        "encoding": "inplace",
        "label": "uint256",
        "numberOfBytes": "32"
      }
    }
  }
}